{
  "_format": "hh-sol-artifact-1",
  "contractName": "SettlementLedger",
  "sourceName": "contracts/SettlementLedger.sol",
  "abi": [
    {
      "anonymous": false,
      "inputs": [
        {
          "indexed": true,
          "internalType": "bytes32",
          "name": "settlementId",
          "type": "bytes32"
        },
        {
          "indexed": true,
          "internalType": "bytes32",
          "name": "groupId",
          "type": "bytes32"
        },
        {
          "indexed": false,
          "internalType": "bytes32",
          "name": "settlementHash",
          "type": "bytes32"
        },
        {
          "indexed": false,
          "internalType": "address",
          "name": "committedBy",
          "type": "address"
        },
        {
          "indexed": false,
          "internalType": "uint256",
          "name": "timestamp",
          "type": "uint256"
        }
      ],
      "name": "SettlementCommitted",
      "type": "event"
    },
    {
      "inputs": [
        {
          "internalType": "bytes32",
          "name": "groupId",
          "type": "bytes32"
        },
        {
          "internalType": "bytes32",
          "name": "settlementHash",
          "type": "bytes32"
        },
        {
          "internalType": "string",
          "name": "currency",
          "type": "string"
        },
        {
          "internalType": "uint256",
          "name": "totalCents",
          "type": "uint256"
        },
        {
          "internalType": "address[]",
          "name": "participants",
          "type": "address[]"
        }
      ],
      "name": "commitSettlement",
      "outputs": [
        {
          "internalType": "bytes32",
          "name": "settlementId",
          "type": "bytes32"
        }
      ],
      "stateMutability": "nonpayable",
      "type": "function"
    },
    {
      "inputs": [
        {
          "internalType": "bytes32",
          "name": "settlementId",
          "type": "bytes32"
        }
      ],
      "name": "getSettlement",
      "outputs": [
        {
          "internalType": "bytes32",
          "name": "groupId",
          "type": "bytes32"
        },
        {
          "internalType": "bytes32",
          "name": "settlementHash",
          "type": "bytes32"
        },
        {
          "internalType": "string",
          "name": "currency",
          "type": "string"
        },
        {
          "internalType": "uint256",
          "name": "totalCents",
          "type": "uint256"
        },
        {
          "internalType": "address",
          "name": "committedBy",
          "type": "address"
        },
        {
          "internalType": "uint256",
          "name": "timestamp",
          "type": "uint256"
        }
      ],
      "stateMutability": "view",
      "type": "function"
    },
    {
      "inputs": [
        {
          "internalType": "bytes32",
          "name": "",
          "type": "bytes32"
        }
      ],
      "name": "settlements",
      "outputs": [
        {
          "internalType": "bytes32",
          "name": "groupId",
          "type": "bytes32"
        },
        {
          "internalType": "bytes32",
          "name": "settlementHash",
          "type": "bytes32"
        },
        {
          "internalType": "string",
          "name": "currency",
          "type": "string"
        },
        {
          "internalType": "uint256",
          "name": "totalCents",
          "type": "uint256"
        },
        {
          "internalType": "address",
          "name": "committedBy",
          "type": "address"
        },
        {
          "internalType": "uint256",
          "name": "timestamp",
          "type": "uint256"
        }
      ],
      "stateMutability": "view",
      "type": "function"
    }
  ],
  "bytecode": "0x608060405234801561001057600080fd5b50610caa806100206000396000f3fe608060405234801561001057600080fd5b50600436106100415760003560e01c806301bc95e214610046578063c3e6ace01461007b578063d68db459146100b0575b600080fd5b610060600480360381019061005b919061050c565b6100e0565b60405161007296959493929190610632565b60405180910390f35b6100956004803603810190610090919061050c565b6101c4565b6040516100a796959493929190610632565b60405180910390f35b6100ca60048036038101906100c59190610781565b610332565b6040516100d7919061083d565b60405180910390f35b600060205280600052604060002060009150905080600001549080600101549080600201805461010f90610887565b80601f016020809104026020016040519081016040528092919081815260200182805461013b90610887565b80156101885780601f1061015d57610100808354040283529160200191610188565b820191906000526020600020905b81548152906001019060200180831161016b57829003601f168201915b5050505050908060030154908060040160009054906101000a900473ffffffffffffffffffffffffffffffffffffffff16908060050154905086565b60008060606000806000806000808981526020019081526020016000206040518060c0016040529081600082015481526020016001820154815260200160028201805461021090610887565b80601f016020809104026020016040519081016040528092919081815260200182805461023c90610887565b80156102895780601f1061025e57610100808354040283529160200191610289565b820191906000526020600020905b81548152906001019060200180831161026c57829003601f168201915b50505050508152602001600382015481526020016004820160009054906101000a900473ffffffffffffffffffffffffffffffffffffffff1673ffffffffffffffffffffffffffffffffffffffff1673ffffffffffffffffffffffffffffffffffffffff1681526020016005820154815250509050806000015181602001518260400151836060015184608001518560a001519650965096509650965096505091939550919395565b60008787334260405160200161034b9493929190610942565b6040516020818303038152906040528051906020012090506040518060c0016040528089815260200188815260200187878080601f016020809104026020016040519081016040528093929190818152602001838380828437600081840152601f19601f8201169050808301925050505050505081526020018581526020013373ffffffffffffffffffffffffffffffffffffffff16815260200142815250600080838152602001908152602001600020600082015181600001556020820151816001015560408201518160020190816104259190610b6b565b506060820151816003015560808201518160040160006101000a81548173ffffffffffffffffffffffffffffffffffffffff021916908373ffffffffffffffffffffffffffffffffffffffff16021790555060a0820151816005015590505087817f41fb0de0c932f84fad66335d714bce109ad3d20390bcb4a6bee9a858c43dbd658933426040516104b993929190610c3d565b60405180910390a3979650505050505050565b600080fd5b600080fd5b6000819050919050565b6104e9816104d6565b81146104f457600080fd5b50565b600081359050610506816104e0565b92915050565b600060208284031215610522576105216104cc565b5b6000610530848285016104f7565b91505092915050565b610542816104d6565b82525050565b600081519050919050565b600082825260208201905092915050565b60005b83811015610582578082015181840152602081019050610567565b60008484015250505050565b6000601f19601f8301169050919050565b60006105aa82610548565b6105b48185610553565b93506105c4818560208601610564565b6105cd8161058e565b840191505092915050565b6000819050919050565b6105eb816105d8565b82525050565b600073ffffffffffffffffffffffffffffffffffffffff82169050919050565b600061061c826105f1565b9050919050565b61062c81610611565b82525050565b600060c0820190506106476000830189610539565b6106546020830188610539565b8181036040830152610666818761059f565b905061067560608301866105e2565b6106826080830185610623565b61068f60a08301846105e2565b979650505050505050565b600080fd5b600080fd5b600080fd5b60008083601f8401126106bf576106be61069a565b5b8235905067ffffffffffffffff8111156106dc576106db61069f565b5b6020830191508360018202830111156106f8576106f76106a4565b5b9250929050565b610708816105d8565b811461071357600080fd5b50565b600081359050610725816106ff565b92915050565b60008083601f8401126107415761074061069a565b5b8235905067ffffffffffffffff81111561075e5761075d61069f565b5b60208301915083602082028301111561077a576107796106a4565b5b9250929050565b600080600080600080600060a0888a0312156107a05761079f6104cc565b5b60006107ae8a828b016104f7565b97505060206107bf8a828b016104f7565b965050604088013567ffffffffffffffff8111156107e0576107df6104d1565b5b6107ec8a828b016106a9565b955095505060606107ff8a828b01610716565b935050608088013567ffffffffffffffff8111156108205761081f6104d1565b5b61082c8a828b0161072b565b925092505092959891949750929550565b60006020820190506108526000830184610539565b92915050565b7f4e487b7100000000000000000000000000000000000000000000000000000000600052602260045260246000fd5b6000600282049050600182168061089f57607f821691505b6020821081036108b2576108b1610858565b5b50919050565b6000819050919050565b6108d36108ce826104d6565b6108b8565b82525050565b60008160601b9050919050565b60006108f1826108d9565b9050919050565b6000610903826108e6565b9050919050565b61091b61091682610611565b6108f8565b82525050565b6000819050919050565b61093c610937826105d8565b610921565b82525050565b600061094e82876108c2565b60208201915061095e82866108c2565b60208201915061096e828561090a565b60148201915061097e828461092b565b60208201915081905095945050505050565b7f4e487b7100000000000000000000000000000000000000000000000000000000600052604160045260246000fd5b60008190508160005260206000209050919050565b60006020601f8301049050919050565b600082821b905092915050565b600060088302610a217fffffffffffffffffffffffffffffffffffffffffffffffffffffffffffffffff826109e4565b610a2b86836109e4565b95508019841693508086168417925050509392505050565b6000819050919050565b6000610a68610a63610a5e846105d8565b610a43565b6105d8565b9050919050565b6000819050919050565b610a8283610a4d565b610a96610a8e82610a6f565b8484546109f1565b825550505050565b600090565b610aab610a9e565b610ab6818484610a79565b505050565b5b81811015610ada57610acf600082610aa3565b600181019050610abc565b5050565b601f821115610b1f57610af0816109bf565b610af9846109d4565b81016020851015610b08578190505b610b1c610b14856109d4565b830182610abb565b50505b505050565b600082821c905092915050565b6000610b4260001984600802610b24565b1980831691505092915050565b6000610b5b8383610b31565b9150826002028217905092915050565b610b7482610548565b67ffffffffffffffff811115610b8d57610b8c610990565b5b610b978254610887565b610ba2828285610ade565b600060209050601f831160018114610bd55760008415610bc3578287015190505b610bcd8582610b4f565b865550610c35565b601f198416610be3866109bf565b60005b82811015610c0b57848901518255600182019150602085019450602081019050610be6565b86831015610c285784890151610c24601f891682610b31565b8355505b6001600288020188555050505b505050505050565b6000606082019050610c526000830186610539565b610c5f6020830185610623565b610c6c60408301846105e2565b94935050505056fea26469706673582212202b6231f696104b314c9c5bf284815f29c971490db68c0ee187b50b7ca142287e64736f6c63430008140033",
  "linkReferences": {},
  "deployedLinkReferences": {}
}